{
  "_format": "hh-sol-artifact-1",
  "contractName": "LotteryGame",
  "sourceName": "contracts/LotteryGame.sol",
  "abi": [
    {
      "inputs": [
        {
          "internalType": "uint64",
          "name": "_subscriptionId",
          "type": "uint64"
        },
        {
          "internalType": "address",
          "name": "_vrfCoordinator",
          "type": "address"
        }
      ],
      "stateMutability": "nonpayable",
      "type": "constructor"
    },
    {
      "inputs": [
        {
          "internalType": "address",
          "name": "have",
          "type": "address"
        },
        {
          "internalType": "address",
          "name": "want",
          "type": "address"
        }
      ],
      "name": "OnlyCoordinatorCanFulfill",
      "type": "error"
    },
    {
      "anonymous": false,
      "inputs": [
        {
          "indexed": false,
          "internalType": "uint256",
          "name": "id",
          "type": "uint256"
        },
        {
          "indexed": false,
          "internalType": "uint256",
          "name": "luckyNUmber",
          "type": "uint256"
        },
        {
          "indexed": false,
          "internalType": "uint256",
          "name": "bet",
          "type": "uint256"
        },
        {
          "indexed": false,
          "internalType": "address",
          "name": "player",
          "type": "address"
        }
      ],
      "name": "Betted",
      "type": "event"
    },
    {
      "anonymous": false,
      "inputs": [
        {
          "indexed": false,
          "internalType": "uint256",
          "name": "number",
          "type": "uint256"
        }
      ],
      "name": "RandomSuccess",
      "type": "event"
    },
    {
      "inputs": [],
      "name": "Gameover",
      "outputs": [],
      "stateMutability": "nonpayable",
      "type": "function"
    },
    {
      "inputs": [
        {
          "internalType": "uint256",
          "name": "_luckyNumber",
          "type": "uint256"
        }
      ],
      "name": "bet",
      "outputs": [],
      "stateMutability": "payable",
      "type": "function"
    },
    {
      "inputs": [],
      "name": "countPlayer",
      "outputs": [
        {
          "internalType": "uint256",
          "name": "",
          "type": "uint256"
        }
      ],
      "stateMutability": "view",
      "type": "function"
    },
    {
      "inputs": [],
      "name": "countPlayerBetting",
      "outputs": [
        {
          "internalType": "uint256",
          "name": "",
          "type": "uint256"
        }
      ],
      "stateMutability": "view",
      "type": "function"
    },
    {
      "inputs": [],
      "name": "fee",
      "outputs": [
        {
          "internalType": "uint256",
          "name": "",
          "type": "uint256"
        }
      ],
      "stateMutability": "view",
      "type": "function"
    },
    {
      "inputs": [],
      "name": "getRandomNumber",
      "outputs": [],
      "stateMutability": "nonpayable",
      "type": "function"
    },
    {
      "inputs": [],
      "name": "owner",
      "outputs": [
        {
          "internalType": "address",
          "name": "",
          "type": "address"
        }
      ],
      "stateMutability": "view",
      "type": "function"
    },
    {
      "inputs": [
        {
          "internalType": "uint256",
          "name": "",
          "type": "uint256"
        }
      ],
      "name": "players",
      "outputs": [
        {
          "internalType": "address",
          "name": "account",
          "type": "address"
        },
        {
          "internalType": "uint256",
          "name": "luckyNUmber",
          "type": "uint256"
        },
        {
          "internalType": "uint256",
          "name": "bet",
          "type": "uint256"
        },
        {
          "internalType": "enum LotteryGame.Status",
          "name": "status",
          "type": "uint8"
        }
      ],
      "stateMutability": "view",
      "type": "function"
    },
    {
      "inputs": [],
      "name": "randNumber",
      "outputs": [
        {
          "internalType": "uint256",
          "name": "",
          "type": "uint256"
        }
      ],
      "stateMutability": "view",
      "type": "function"
    },
    {
      "inputs": [],
      "name": "rate",
      "outputs": [
        {
          "internalType": "uint256",
          "name": "",
          "type": "uint256"
        }
      ],
      "stateMutability": "view",
      "type": "function"
    },
    {
      "inputs": [
        {
          "internalType": "uint256",
          "name": "requestId",
          "type": "uint256"
        },
        {
          "internalType": "uint256[]",
          "name": "randomWords",
          "type": "uint256[]"
        }
      ],
      "name": "rawFulfillRandomWords",
      "outputs": [],
      "stateMutability": "nonpayable",
      "type": "function"
    },
    {
      "inputs": [],
      "name": "s_requestId",
      "outputs": [
        {
          "internalType": "uint256",
          "name": "",
          "type": "uint256"
        }
      ],
      "stateMutability": "view",
      "type": "function"
    },
    {
      "inputs": [],
      "name": "startGame",
      "outputs": [
        {
          "internalType": "bool",
          "name": "",
          "type": "bool"
        }
      ],
      "stateMutability": "view",
      "type": "function"
    },
    {
      "inputs": [],
      "name": "updatePlayers",
      "outputs": [],
      "stateMutability": "payable",
      "type": "function"
    }
  ],
  "bytecode": "0x60a06040527f79d3d8832d904592c0bf9818b621522c988bb8b0c05cdc3b15aea1b6e8db0c1560001b600155620186a0600260006101000a81548163ffffffff021916908363ffffffff1602179055506003600260046101000a81548161ffff021916908361ffff16021790555060028060066101000a81548163ffffffff021916908363ffffffff1602179055503480156200009b57600080fd5b5060405162001889380380620018898339818101604052810190620000c1919062000268565b808073ffffffffffffffffffffffffffffffffffffffff1660808173ffffffffffffffffffffffffffffffffffffffff16815250505033600560006101000a81548173ffffffffffffffffffffffffffffffffffffffff021916908373ffffffffffffffffffffffffffffffffffffffff1602179055506002600881905550600a600981905550806000806101000a81548173ffffffffffffffffffffffffffffffffffffffff021916908373ffffffffffffffffffffffffffffffffffffffff16021790555081600060146101000a81548167ffffffffffffffff021916908367ffffffffffffffff1602179055505050620002af565b600080fd5b600067ffffffffffffffff82169050919050565b620001dd81620001be565b8114620001e957600080fd5b50565b600081519050620001fd81620001d2565b92915050565b600073ffffffffffffffffffffffffffffffffffffffff82169050919050565b6000620002308262000203565b9050919050565b620002428162000223565b81146200024e57600080fd5b50565b600081519050620002628162000237565b92915050565b60008060408385031215620002825762000281620001b9565b5b60006200029285828601620001ec565b9250506020620002a58582860162000251565b9150509250929050565b6080516115b7620002d2600039600081816106ca015261071e01526115b76000f3fe6080604052600436106100dd5760003560e01c80638da5cb5b1161007f578063dbdff2c111610059578063dbdff2c11461024a578063ddca3f4314610261578063e89e106a1461028c578063f71d96cb146102b7576100dd565b80638da5cb5b146101c9578063aaa006b2146101f4578063d65ab5f21461021f576100dd565b80632c4e722e116100bb5780632c4e722e1461012c5780633d9b53f9146101575780637365870b1461018257806379d97a1c1461019e576100dd565b806311ae17e5146100e2578063190c0eef146100f95780631fe543e314610103575b600080fd5b3480156100ee57600080fd5b506100f76102f7565b005b6101016103a4565b005b34801561010f57600080fd5b5061012a60048036038101906101259190610dca565b6106c8565b005b34801561013857600080fd5b50610141610788565b60405161014e9190610e35565b60405180910390f35b34801561016357600080fd5b5061016c61078e565b6040516101799190610e35565b60405180910390f35b61019c60048036038101906101979190610e50565b610794565b005b3480156101aa57600080fd5b506101b3610986565b6040516101c09190610e35565b60405180910390f35b3480156101d557600080fd5b506101de61098c565b6040516101eb9190610ebe565b60405180910390f35b34801561020057600080fd5b506102096109b2565b6040516102169190610e35565b60405180910390f35b34801561022b57600080fd5b506102346109b8565b6040516102419190610ef4565b60405180910390f35b34801561025657600080fd5b5061025f6109cb565b005b34801561026d57600080fd5b50610276610b53565b6040516102839190610e35565b60405180910390f35b34801561029857600080fd5b506102a1610b59565b6040516102ae9190610e35565b60405180910390f35b3480156102c357600080fd5b506102de60048036038101906102d99190610e50565b610b5f565b6040516102ee9493929190610f86565b60405180910390f35b600560009054906101000a900473ffffffffffffffffffffffffffffffffffffffff1673ffffffffffffffffffffffffffffffffffffffff163373ffffffffffffffffffffffffffffffffffffffff1614610387576040517f08c379a000000000000000000000000000000000000000000000000000000000815260040161037e90611028565b60405180910390fd5b6000600560146101000a81548160ff021916908315150217905550565b600560009054906101000a900473ffffffffffffffffffffffffffffffffffffffff1673ffffffffffffffffffffffffffffffffffffffff163373ffffffffffffffffffffffffffffffffffffffff1614610434576040517f08c379a000000000000000000000000000000000000000000000000000000000815260040161042b90611028565b60405180910390fd5b6000600190505b60065481116106a2576000600a600083815260200190815260200160002090506003548160010154036106605760018160030160006101000a81548160ff021916908360028111156104905761048f610f0f565b5b0217905550600060095460085483600201546104ac9190611077565b6104b691906110b9565b905060008260000160009054906101000a900473ffffffffffffffffffffffffffffffffffffffff1673ffffffffffffffffffffffffffffffffffffffff16826040516105029061111e565b60006040518083038185875af1925050503d806000811461053f576040519150601f19603f3d011682016040523d82523d6000602084013e610544565b606091505b5050905080610588576040517f08c379a000000000000000000000000000000000000000000000000000000000815260040161057f9061117f565b60405180910390fd5b6000600560009054906101000a900473ffffffffffffffffffffffffffffffffffffffff1673ffffffffffffffffffffffffffffffffffffffff166009546040516105d29061111e565b60006040518083038185875af1925050503d806000811461060f576040519150601f19603f3d011682016040523d82523d6000602084013e610614565b606091505b5050905080610658576040517f08c379a000000000000000000000000000000000000000000000000000000000815260040161064f906111eb565b60405180910390fd5b50505061068e565b60028160030160006101000a81548160ff0219169083600281111561068857610687610f0f565b5b02179055505b50808061069a9061120b565b91505061043b565b506001600560146101000a81548160ff0219169083151502179055506000600781905550565b7f000000000000000000000000000000000000000000000000000000000000000073ffffffffffffffffffffffffffffffffffffffff163373ffffffffffffffffffffffffffffffffffffffff161461077a57337f00000000000000000000000000000000000000000000000000000000000000006040517f1cf993f4000000000000000000000000000000000000000000000000000000008152600401610771929190611253565b60405180910390fd5b6107848282610bbc565b5050565b60085481565b60075481565b600081101580156107a55750606481105b6107e4576040517f08c379a00000000000000000000000000000000000000000000000000000000081526004016107db906112ee565b60405180910390fd5b60003411610827576040517f08c379a000000000000000000000000000000000000000000000000000000000815260040161081e90611380565b60405180910390fd5b6006600081548092919061083a9061120b565b9190505550600760008154809291906108529061120b565b919050555060405180608001604052803373ffffffffffffffffffffffffffffffffffffffff1681526020018281526020013481526020016000600281111561089e5761089d610f0f565b5b815250600a6000600654815260200190815260200160002060008201518160000160006101000a81548173ffffffffffffffffffffffffffffffffffffffff021916908373ffffffffffffffffffffffffffffffffffffffff160217905550602082015181600101556040820151816002015560608201518160030160006101000a81548160ff0219169083600281111561093c5761093b610f0f565b5b02179055509050507ff21013fd2eb02107cf77ccec0c2fb9d6bf6231dbc56e15cb359f9622b19a8afd60065482343360405161097b94939291906113a0565b60405180910390a150565b60035481565b600560009054906101000a900473ffffffffffffffffffffffffffffffffffffffff1681565b60065481565b600560149054906101000a900460ff1681565b600560009054906101000a900473ffffffffffffffffffffffffffffffffffffffff1673ffffffffffffffffffffffffffffffffffffffff163373ffffffffffffffffffffffffffffffffffffffff1614610a5b576040517f08c379a0000000000000000000000000000000000000000000000000000000008152600401610a5290611028565b60405180910390fd5b60008054906101000a900473ffffffffffffffffffffffffffffffffffffffff1673ffffffffffffffffffffffffffffffffffffffff16635d3b1d30600154600060149054906101000a900467ffffffffffffffff16600260049054906101000a900461ffff16600260009054906101000a900463ffffffff16600260069054906101000a900463ffffffff166040518663ffffffff1660e01b8152600401610b0895949392919061145d565b6020604051808303816000875af1158015610b27573d6000803e3d6000fd5b505050506040513d601f19601f82011682018060405250810190610b4b91906114c5565b600481905550565b60095481565b60045481565b600a6020528060005260406000206000915090508060000160009054906101000a900473ffffffffffffffffffffffffffffffffffffffff16908060010154908060020154908060030160009054906101000a900460ff16905084565b606481600081518110610bd257610bd16114f2565b5b6020026020010151610be49190611550565b6003819055507f4e6b49958b6d53d029b765df7fcf10b0b87b6e42f2b56013f64cc8b73ced15a7600354604051610c1b9190610e35565b60405180910390a15050565b6000604051905090565b600080fd5b600080fd5b6000819050919050565b610c4e81610c3b565b8114610c5957600080fd5b50565b600081359050610c6b81610c45565b92915050565b600080fd5b6000601f19601f8301169050919050565b7f4e487b7100000000000000000000000000000000000000000000000000000000600052604160045260246000fd5b610cbf82610c76565b810181811067ffffffffffffffff82111715610cde57610cdd610c87565b5b80604052505050565b6000610cf1610c27565b9050610cfd8282610cb6565b919050565b600067ffffffffffffffff821115610d1d57610d1c610c87565b5b602082029050602081019050919050565b600080fd5b6000610d46610d4184610d02565b610ce7565b90508083825260208201905060208402830185811115610d6957610d68610d2e565b5b835b81811015610d925780610d7e8882610c5c565b845260208401935050602081019050610d6b565b5050509392505050565b600082601f830112610db157610db0610c71565b5b8135610dc1848260208601610d33565b91505092915050565b60008060408385031215610de157610de0610c31565b5b6000610def85828601610c5c565b925050602083013567ffffffffffffffff811115610e1057610e0f610c36565b5b610e1c85828601610d9c565b9150509250929050565b610e2f81610c3b565b82525050565b6000602082019050610e4a6000830184610e26565b92915050565b600060208284031215610e6657610e65610c31565b5b6000610e7484828501610c5c565b91505092915050565b600073ffffffffffffffffffffffffffffffffffffffff82169050919050565b6000610ea882610e7d565b9050919050565b610eb881610e9d565b82525050565b6000602082019050610ed36000830184610eaf565b92915050565b60008115159050919050565b610eee81610ed9565b82525050565b6000602082019050610f096000830184610ee5565b92915050565b7f4e487b7100000000000000000000000000000000000000000000000000000000600052602160045260246000fd5b60038110610f4f57610f4e610f0f565b5b50565b6000819050610f6082610f3e565b919050565b6000610f7082610f52565b9050919050565b610f8081610f65565b82525050565b6000608082019050610f9b6000830187610eaf565b610fa86020830186610e26565b610fb56040830185610e26565b610fc26060830184610f77565b95945050505050565b600082825260208201905092915050565b7f4f6e6c79206f776e657200000000000000000000000000000000000000000000600082015250565b6000611012600a83610fcb565b915061101d82610fdc565b602082019050919050565b6000602082019050818103600083015261104181611005565b9050919050565b7f4e487b7100000000000000000000000000000000000000000000000000000000600052601160045260246000fd5b600061108282610c3b565b915061108d83610c3b565b925082820261109b81610c3b565b915082820484148315176110b2576110b1611048565b5b5092915050565b60006110c482610c3b565b91506110cf83610c3b565b92508282039050818111156110e7576110e6611048565b5b92915050565b600081905092915050565b50565b60006111086000836110ed565b9150611113826110f8565b600082019050919050565b6000611129826110fb565b9150819050919050565b7f4661696c656420746f2073656e64204574686572000000000000000000000000600082015250565b6000611169601483610fcb565b915061117482611133565b602082019050919050565b600060208201905081810360008301526111988161115c565b9050919050565b7f4661696c656420746f2073656e64322045746865720000000000000000000000600082015250565b60006111d5601583610fcb565b91506111e08261119f565b602082019050919050565b60006020820190508181036000830152611204816111c8565b9050919050565b600061121682610c3b565b91507fffffffffffffffffffffffffffffffffffffffffffffffffffffffffffffffff820361124857611247611048565b5b600182019050919050565b60006040820190506112686000830185610eaf565b6112756020830184610eaf565b9392505050565b7f4c75636b79206e756d626572206d7573742062652066726f6d203020746f203960008201527f3900000000000000000000000000000000000000000000000000000000000000602082015250565b60006112d8602183610fcb565b91506112e38261127c565b604082019050919050565b60006020820190508181036000830152611307816112cb565b9050919050565b7f596f757220626574206d7573742062652067726561746572207468616e207a6560008201527f726f000000000000000000000000000000000000000000000000000000000000602082015250565b600061136a602283610fcb565b91506113758261130e565b604082019050919050565b600060208201905081810360008301526113998161135d565b9050919050565b60006080820190506113b56000830187610e26565b6113c26020830186610e26565b6113cf6040830185610e26565b6113dc6060830184610eaf565b95945050505050565b6000819050919050565b6113f8816113e5565b82525050565b600067ffffffffffffffff82169050919050565b61141b816113fe565b82525050565b600061ffff82169050919050565b61143881611421565b82525050565b600063ffffffff82169050919050565b6114578161143e565b82525050565b600060a08201905061147260008301886113ef565b61147f6020830187611412565b61148c604083018661142f565b611499606083018561144e565b6114a6608083018461144e565b9695505050505050565b6000815190506114bf81610c45565b92915050565b6000602082840312156114db576114da610c31565b5b60006114e9848285016114b0565b91505092915050565b7f4e487b7100000000000000000000000000000000000000000000000000000000600052603260045260246000fd5b7f4e487b7100000000000000000000000000000000000000000000000000000000600052601260045260246000fd5b600061155b82610c3b565b915061156683610c3b565b92508261157657611575611521565b5b82820690509291505056fea264697066735822122094d308686d02d5645d05485d9a972d07393341e152cf57fe4b931ce8253b19ea64736f6c63430008110033",
  "linkReferences": {},
  "deployedLinkReferences": {}
}